{
  "_format": "hh-sol-artifact-1",
  "contractName": "NFTMarketplace",
  "sourceName": "contracts/NFTMarketplace.sol",
  "abi": [
    {
      "inputs": [],
      "stateMutability": "nonpayable",
      "type": "constructor"
    },
    {
      "anonymous": false,
      "inputs": [
        {
          "indexed": true,
          "internalType": "address",
          "name": "owner",
          "type": "address"
        },
        {
          "indexed": true,
          "internalType": "address",
          "name": "approved",
          "type": "address"
        },
        {
          "indexed": true,
          "internalType": "uint256",
          "name": "tokenId",
          "type": "uint256"
        }
      ],
      "name": "Approval",
      "type": "event"
    },
    {
      "anonymous": false,
      "inputs": [
        {
          "indexed": true,
          "internalType": "address",
          "name": "owner",
          "type": "address"
        },
        {
          "indexed": true,
          "internalType": "address",
          "name": "operator",
          "type": "address"
        },
        {
          "indexed": false,
          "internalType": "bool",
          "name": "approved",
          "type": "bool"
        }
      ],
      "name": "ApprovalForAll",
      "type": "event"
    },
    {
      "anonymous": false,
      "inputs": [
        {
          "indexed": true,
          "internalType": "uint256",
          "name": "tokenId",
          "type": "uint256"
        },
        {
          "indexed": false,
          "internalType": "address",
          "name": "seller",
          "type": "address"
        },
        {
          "indexed": false,
          "internalType": "address",
          "name": "owner",
          "type": "address"
        },
        {
          "indexed": false,
          "internalType": "uint256",
          "name": "price",
          "type": "uint256"
        },
        {
          "indexed": false,
          "internalType": "bool",
          "name": "sold",
          "type": "bool"
        }
      ],
      "name": "MarketItemCreated",
      "type": "event"
    },
    {
      "anonymous": false,
      "inputs": [
        {
          "indexed": true,
          "internalType": "address",
          "name": "from",
          "type": "address"
        },
        {
          "indexed": true,
          "internalType": "address",
          "name": "to",
          "type": "address"
        },
        {
          "indexed": true,
          "internalType": "uint256",
          "name": "tokenId",
          "type": "uint256"
        }
      ],
      "name": "Transfer",
      "type": "event"
    },
    {
      "inputs": [
        {
          "internalType": "address",
          "name": "to",
          "type": "address"
        },
        {
          "internalType": "uint256",
          "name": "tokenId",
          "type": "uint256"
        }
      ],
      "name": "approve",
      "outputs": [],
      "stateMutability": "nonpayable",
      "type": "function"
    },
    {
      "inputs": [
        {
          "internalType": "address",
          "name": "owner",
          "type": "address"
        }
      ],
      "name": "balanceOf",
      "outputs": [
        {
          "internalType": "uint256",
          "name": "",
          "type": "uint256"
        }
      ],
      "stateMutability": "view",
      "type": "function"
    },
    {
      "inputs": [
        {
          "internalType": "uint256",
          "name": "tokenId",
          "type": "uint256"
        }
      ],
      "name": "createMarketSale",
      "outputs": [],
      "stateMutability": "payable",
      "type": "function"
    },
    {
      "inputs": [
        {
          "internalType": "string",
          "name": "tokenURI",
          "type": "string"
        },
        {
          "internalType": "uint256",
          "name": "price",
          "type": "uint256"
        }
      ],
      "name": "createToken",
      "outputs": [
        {
          "internalType": "uint256",
          "name": "",
          "type": "uint256"
        }
      ],
      "stateMutability": "payable",
      "type": "function"
    },
    {
      "inputs": [],
      "name": "fetchMarketItems",
      "outputs": [
        {
          "components": [
            {
              "internalType": "uint256",
              "name": "tokenId",
              "type": "uint256"
            },
            {
              "internalType": "address payable",
              "name": "seller",
              "type": "address"
            },
            {
              "internalType": "address payable",
              "name": "owner",
              "type": "address"
            },
            {
              "internalType": "uint256",
              "name": "price",
              "type": "uint256"
            },
            {
              "internalType": "bool",
              "name": "sold",
              "type": "bool"
            }
          ],
          "internalType": "struct NFTMarketplace.MarketItem[]",
          "name": "",
          "type": "tuple[]"
        }
      ],
      "stateMutability": "view",
      "type": "function"
    },
    {
      "inputs": [],
      "name": "fetchMyNFTs",
      "outputs": [
        {
          "components": [
            {
              "internalType": "uint256",
              "name": "tokenId",
              "type": "uint256"
            },
            {
              "internalType": "address payable",
              "name": "seller",
              "type": "address"
            },
            {
              "internalType": "address payable",
              "name": "owner",
              "type": "address"
            },
            {
              "internalType": "uint256",
              "name": "price",
              "type": "uint256"
            },
            {
              "internalType": "bool",
              "name": "sold",
              "type": "bool"
            }
          ],
          "internalType": "struct NFTMarketplace.MarketItem[]",
          "name": "",
          "type": "tuple[]"
        }
      ],
      "stateMutability": "view",
      "type": "function"
    },
    {
      "inputs": [],
      "name": "fetchitemsListed",
      "outputs": [
        {
          "components": [
            {
              "internalType": "uint256",
              "name": "tokenId",
              "type": "uint256"
            },
            {
              "internalType": "address payable",
              "name": "seller",
              "type": "address"
            },
            {
              "internalType": "address payable",
              "name": "owner",
              "type": "address"
            },
            {
              "internalType": "uint256",
              "name": "price",
              "type": "uint256"
            },
            {
              "internalType": "bool",
              "name": "sold",
              "type": "bool"
            }
          ],
          "internalType": "struct NFTMarketplace.MarketItem[]",
          "name": "",
          "type": "tuple[]"
        }
      ],
      "stateMutability": "view",
      "type": "function"
    },
    {
      "inputs": [
        {
          "internalType": "uint256",
          "name": "tokenId",
          "type": "uint256"
        }
      ],
      "name": "getApproved",
      "outputs": [
        {
          "internalType": "address",
          "name": "",
          "type": "address"
        }
      ],
      "stateMutability": "view",
      "type": "function"
    },
    {
      "inputs": [],
      "name": "getListingPrice",
      "outputs": [
        {
          "internalType": "uint256",
          "name": "",
          "type": "uint256"
        }
      ],
      "stateMutability": "view",
      "type": "function"
    },
    {
      "inputs": [
        {
          "internalType": "address",
          "name": "owner",
          "type": "address"
        },
        {
          "internalType": "address",
          "name": "operator",
          "type": "address"
        }
      ],
      "name": "isApprovedForAll",
      "outputs": [
        {
          "internalType": "bool",
          "name": "",
          "type": "bool"
        }
      ],
      "stateMutability": "view",
      "type": "function"
    },
    {
      "inputs": [],
      "name": "name",
      "outputs": [
        {
          "internalType": "string",
          "name": "",
          "type": "string"
        }
      ],
      "stateMutability": "view",
      "type": "function"
    },
    {
      "inputs": [
        {
          "internalType": "uint256",
          "name": "tokenId",
          "type": "uint256"
        }
      ],
      "name": "ownerOf",
      "outputs": [
        {
          "internalType": "address",
          "name": "",
          "type": "address"
        }
      ],
      "stateMutability": "view",
      "type": "function"
    },
    {
      "inputs": [
        {
          "internalType": "uint256",
          "name": "tokenId",
          "type": "uint256"
        },
        {
          "internalType": "uint256",
          "name": "price",
          "type": "uint256"
        }
      ],
      "name": "resellToken",
      "outputs": [],
      "stateMutability": "payable",
      "type": "function"
    },
    {
      "inputs": [
        {
          "internalType": "address",
          "name": "from",
          "type": "address"
        },
        {
          "internalType": "address",
          "name": "to",
          "type": "address"
        },
        {
          "internalType": "uint256",
          "name": "tokenId",
          "type": "uint256"
        }
      ],
      "name": "safeTransferFrom",
      "outputs": [],
      "stateMutability": "nonpayable",
      "type": "function"
    },
    {
      "inputs": [
        {
          "internalType": "address",
          "name": "from",
          "type": "address"
        },
        {
          "internalType": "address",
          "name": "to",
          "type": "address"
        },
        {
          "internalType": "uint256",
          "name": "tokenId",
          "type": "uint256"
        },
        {
          "internalType": "bytes",
          "name": "data",
          "type": "bytes"
        }
      ],
      "name": "safeTransferFrom",
      "outputs": [],
      "stateMutability": "nonpayable",
      "type": "function"
    },
    {
      "inputs": [
        {
          "internalType": "address",
          "name": "operator",
          "type": "address"
        },
        {
          "internalType": "bool",
          "name": "approved",
          "type": "bool"
        }
      ],
      "name": "setApprovalForAll",
      "outputs": [],
      "stateMutability": "nonpayable",
      "type": "function"
    },
    {
      "inputs": [
        {
          "internalType": "bytes4",
          "name": "interfaceId",
          "type": "bytes4"
        }
      ],
      "name": "supportsInterface",
      "outputs": [
        {
          "internalType": "bool",
          "name": "",
          "type": "bool"
        }
      ],
      "stateMutability": "view",
      "type": "function"
    },
    {
      "inputs": [],
      "name": "symbol",
      "outputs": [
        {
          "internalType": "string",
          "name": "",
          "type": "string"
        }
      ],
      "stateMutability": "view",
      "type": "function"
    },
    {
      "inputs": [
        {
          "internalType": "uint256",
          "name": "tokenId",
          "type": "uint256"
        }
      ],
      "name": "tokenURI",
      "outputs": [
        {
          "internalType": "string",
          "name": "",
          "type": "string"
        }
      ],
      "stateMutability": "view",
      "type": "function"
    },
    {
      "inputs": [
        {
          "internalType": "address",
          "name": "from",
          "type": "address"
        },
        {
          "internalType": "address",
          "name": "to",
          "type": "address"
        },
        {
          "internalType": "uint256",
          "name": "tokenId",
          "type": "uint256"
        }
      ],
      "name": "transferFrom",
      "outputs": [],
      "stateMutability": "nonpayable",
      "type": "function"
    },
    {
      "inputs": [
        {
          "internalType": "uint256",
          "name": "_listingPrice",
          "type": "uint256"
        }
      ],
      "name": "updateListingPrice",
      "outputs": [],
      "stateMutability": "payable",
      "type": "function"
    }
  ],
  "bytecode": "0x60806040526658d15e176280006009553480156200001c57600080fd5b506040518060400160405280601081526020017f4d657461766572736520546f6b656e73000000000000000000000000000000008152506040518060400160405280600481526020017f4d455454000000000000000000000000000000000000000000000000000000008152508160009080519060200190620000a192919062000104565b508060019080519060200190620000ba92919062000104565b50505033600a60006101000a81548173ffffffffffffffffffffffffffffffffffffffff021916908373ffffffffffffffffffffffffffffffffffffffff16021790555062000219565b8280546200011290620001b4565b90600052602060002090601f01602090048101928262000136576000855562000182565b82601f106200015157805160ff191683800117855562000182565b8280016001018555821562000182579182015b828111156200018157825182559160200191906001019062000164565b5b50905062000191919062000195565b5090565b5b80821115620001b057600081600090555060010162000196565b5090565b60006002820490506001821680620001cd57607f821691505b60208210811415620001e457620001e3620001ea565b5b50919050565b7f4e487b7100000000000000000000000000000000000000000000000000000000600052602260045260246000fd5b6141fb80620002296000396000f3fe60806040526004361061012a5760003560e01c806370a08231116100ab578063b88d4fde1161006f578063b88d4fde146103ea578063be9af53614610413578063c87b56dd1461042f578063de81d6bb1461046c578063e219fc7514610497578063e985e9c5146104b35761012a565b806370a082311461030d57806372b3b6201461034a57806395d89b411461037a578063a22cb465146103a5578063ae677aa3146103ce5761012a565b806312e85585116100f257806312e8558514610228578063202e37401461025357806323b872dd1461027e57806342842e0e146102a75780636352211e146102d05761012a565b806301ffc9a71461012f57806306fdde031461016c578063081812fc14610197578063095ea7b3146101d45780630f08efe0146101fd575b600080fd5b34801561013b57600080fd5b506101566004803603810190610151919061303a565b6104f0565b6040516101639190613688565b60405180910390f35b34801561017857600080fd5b506101816105d2565b60405161018e91906136a3565b60405180910390f35b3480156101a357600080fd5b506101be60048036038101906101b991906130e0565b610664565b6040516101cb91906135ba565b60405180910390f35b3480156101e057600080fd5b506101fb60048036038101906101f69190612ffe565b6106aa565b005b34801561020957600080fd5b506102126107c2565b60405161021f9190613666565b60405180910390f35b34801561023457600080fd5b5061023d610a62565b60405161024a9190613905565b60405180910390f35b34801561025f57600080fd5b50610268610a6c565b6040516102759190613666565b60405180910390f35b34801561028a57600080fd5b506102a560048036038101906102a09190612ef8565b610da6565b005b3480156102b357600080fd5b506102ce60048036038101906102c99190612ef8565b610e06565b005b3480156102dc57600080fd5b506102f760048036038101906102f291906130e0565b610e26565b60405161030491906135ba565b60405180910390f35b34801561031957600080fd5b50610334600480360381019061032f9190612e93565b610ead565b6040516103419190613905565b60405180910390f35b610364600480360381019061035f919061308c565b610f65565b6040516103719190613905565b60405180910390f35b34801561038657600080fd5b5061038f610fa7565b60405161039c91906136a3565b60405180910390f35b3480156103b157600080fd5b506103cc60048036038101906103c79190612fc2565b611039565b005b6103e860048036038101906103e391906130e0565b61104f565b005b3480156103f657600080fd5b50610411600480360381019061040c9190612f47565b6110e9565b005b61042d600480360381019061042891906130e0565b61114b565b005b34801561043b57600080fd5b50610456600480360381019061045191906130e0565b611383565b60405161046391906136a3565b60405180910390f35b34801561047857600080fd5b50610481611496565b60405161048e9190613666565b60405180910390f35b6104b160048036038101906104ac9190613109565b6117d0565b005b3480156104bf57600080fd5b506104da60048036038101906104d59190612ebc565b6119c5565b6040516104e79190613688565b60405180910390f35b60007f80ac58cd000000000000000000000000000000000000000000000000000000007bffffffffffffffffffffffffffffffffffffffffffffffffffffffff1916827bffffffffffffffffffffffffffffffffffffffffffffffffffffffff191614806105bb57507f5b5e139f000000000000000000000000000000000000000000000000000000007bffffffffffffffffffffffffffffffffffffffffffffffffffffffff1916827bffffffffffffffffffffffffffffffffffffffffffffffffffffffff1916145b806105cb57506105ca82611a59565b5b9050919050565b6060600080546105e190613b75565b80601f016020809104026020016040519081016040528092919081815260200182805461060d90613b75565b801561065a5780601f1061062f5761010080835404028352916020019161065a565b820191906000526020600020905b81548152906001019060200180831161063d57829003601f168201915b5050505050905090565b600061066f82611ac3565b6004600083815260200190815260200160002060009054906101000a900473ffffffffffffffffffffffffffffffffffffffff169050919050565b60006106b582610e26565b90508073ffffffffffffffffffffffffffffffffffffffff168373ffffffffffffffffffffffffffffffffffffffff161415610726576040517f08c379a000000000000000000000000000000000000000000000000000000000815260040161071d90613865565b60405180910390fd5b8073ffffffffffffffffffffffffffffffffffffffff16610745611b0e565b73ffffffffffffffffffffffffffffffffffffffff16148061077457506107738161076e611b0e565b6119c5565b5b6107b3576040517f08c379a00000000000000000000000000000000000000000000000000000000081526004016107aa906138a5565b60405180910390fd5b6107bd8383611b16565b505050565b606060006107d06007611bcf565b905060006107de6008611bcf565b6107e86007611bcf565b6107f29190613a79565b90506000808267ffffffffffffffff811115610837577f4e487b7100000000000000000000000000000000000000000000000000000000600052604160045260246000fd5b60405190808252806020026020018201604052801561087057816020015b61085d612c5a565b8152602001906001900390816108555790505b5090506000600190505b848111610a57573073ffffffffffffffffffffffffffffffffffffffff16600b600083815260200190815260200160002060020160009054906101000a900473ffffffffffffffffffffffffffffffffffffffff1673ffffffffffffffffffffffffffffffffffffffff161415610a445760008190506000600b60008381526020019081526020016000209050806040518060a0016040529081600082015481526020016001820160009054906101000a900473ffffffffffffffffffffffffffffffffffffffff1673ffffffffffffffffffffffffffffffffffffffff1673ffffffffffffffffffffffffffffffffffffffff1681526020016002820160009054906101000a900473ffffffffffffffffffffffffffffffffffffffff1673ffffffffffffffffffffffffffffffffffffffff1673ffffffffffffffffffffffffffffffffffffffff168152602001600382015481526020016004820160009054906101000a900460ff161515151581525050848681518110610a27577f4e487b7100000000000000000000000000000000000000000000000000000000600052603260045260246000fd5b6020026020010181905250600185610a3f9190613a23565b945050505b8080610a4f90613bd8565b91505061087a565b508094505050505090565b6000600954905090565b60606000610a7a6007611bcf565b905060008060005b83811015610b23573373ffffffffffffffffffffffffffffffffffffffff16600b6000600184610ab29190613a23565b815260200190815260200160002060020160009054906101000a900473ffffffffffffffffffffffffffffffffffffffff1673ffffffffffffffffffffffffffffffffffffffff161415610b1057600183610b0d9190613a23565b92505b8080610b1b90613bd8565b915050610a82565b5060008267ffffffffffffffff811115610b66577f4e487b7100000000000000000000000000000000000000000000000000000000600052604160045260246000fd5b604051908082528060200260200182016040528015610b9f57816020015b610b8c612c5a565b815260200190600190039081610b845790505b50905060005b84811015610d9b573373ffffffffffffffffffffffffffffffffffffffff16600b6000600184610bd59190613a23565b815260200190815260200160002060020160009054906101000a900473ffffffffffffffffffffffffffffffffffffffff1673ffffffffffffffffffffffffffffffffffffffff161415610d88576000600182610c329190613a23565b90506000600b60008381526020019081526020016000209050806040518060a0016040529081600082015481526020016001820160009054906101000a900473ffffffffffffffffffffffffffffffffffffffff1673ffffffffffffffffffffffffffffffffffffffff1673ffffffffffffffffffffffffffffffffffffffff1681526020016002820160009054906101000a900473ffffffffffffffffffffffffffffffffffffffff1673ffffffffffffffffffffffffffffffffffffffff1673ffffffffffffffffffffffffffffffffffffffff168152602001600382015481526020016004820160009054906101000a900460ff161515151581525050848681518110610d6b577f4e487b7100000000000000000000000000000000000000000000000000000000600052603260045260246000fd5b6020026020010181905250600185610d839190613a23565b945050505b8080610d9390613bd8565b915050610ba5565b508094505050505090565b610db7610db1611b0e565b82611bdd565b610df6576040517f08c379a0000000000000000000000000000000000000000000000000000000008152600401610ded906136c5565b60405180910390fd5b610e01838383611c72565b505050565b610e21838383604051806020016040528060008152506110e9565b505050565b600080610e3283611f6c565b9050600073ffffffffffffffffffffffffffffffffffffffff168173ffffffffffffffffffffffffffffffffffffffff161415610ea4576040517f08c379a0000000000000000000000000000000000000000000000000000000008152600401610e9b90613845565b60405180910390fd5b80915050919050565b60008073ffffffffffffffffffffffffffffffffffffffff168273ffffffffffffffffffffffffffffffffffffffff161415610f1e576040517f08c379a0000000000000000000000000000000000000000000000000000000008152600401610f15906137a5565b60405180910390fd5b600360008373ffffffffffffffffffffffffffffffffffffffff1673ffffffffffffffffffffffffffffffffffffffff168152602001908152602001600020549050919050565b6000610f716007611fa9565b6000610f7d6007611bcf565b9050610f893382611fbf565b610f9381856121dd565b610f9d8184612251565b8091505092915050565b606060018054610fb690613b75565b80601f0160208091040260200160405190810160405280929190818152602001828054610fe290613b75565b801561102f5780601f106110045761010080835404028352916020019161102f565b820191906000526020600020905b81548152906001019060200180831161101257829003601f168201915b5050505050905090565b61104b611044611b0e565b8383612454565b5050565b3373ffffffffffffffffffffffffffffffffffffffff16600a60009054906101000a900473ffffffffffffffffffffffffffffffffffffffff1673ffffffffffffffffffffffffffffffffffffffff16146110df576040517f08c379a00000000000000000000000000000000000000000000000000000000081526004016110d6906138c5565b60405180910390fd5b8060098190555050565b6110fa6110f4611b0e565b83611bdd565b611139576040517f08c379a0000000000000000000000000000000000000000000000000000000008152600401611130906136c5565b60405180910390fd5b611145848484846125c1565b50505050565b6000600b60008381526020019081526020016000206003015490508034146111a8576040517f08c379a000000000000000000000000000000000000000000000000000000000815260040161119f906137e5565b60405180910390fd5b33600b600084815260200190815260200160002060020160006101000a81548173ffffffffffffffffffffffffffffffffffffffff021916908373ffffffffffffffffffffffffffffffffffffffff1602179055506001600b600084815260200190815260200160002060040160006101000a81548160ff0219169083151502179055506000600b600084815260200190815260200160002060010160006101000a81548173ffffffffffffffffffffffffffffffffffffffff021916908373ffffffffffffffffffffffffffffffffffffffff16021790555061128c6008611fa9565b611297303384611c72565b600a60009054906101000a900473ffffffffffffffffffffffffffffffffffffffff1673ffffffffffffffffffffffffffffffffffffffff166108fc6009549081150290604051600060405180830381858888f19350505050158015611301573d6000803e3d6000fd5b50600b600083815260200190815260200160002060010160009054906101000a900473ffffffffffffffffffffffffffffffffffffffff1673ffffffffffffffffffffffffffffffffffffffff166108fc349081150290604051600060405180830381858888f1935050505015801561137e573d6000803e3d6000fd5b505050565b606061138e82611ac3565b60006006600084815260200190815260200160002080546113ae90613b75565b80601f01602080910402602001604051908101604052809291908181526020018280546113da90613b75565b80156114275780601f106113fc57610100808354040283529160200191611427565b820191906000526020600020905b81548152906001019060200180831161140a57829003601f168201915b50505050509050600061143861261d565b905060008151141561144e578192505050611491565b60008251111561148357808260405160200161146b929190613596565b60405160208183030381529060405292505050611491565b61148c84612634565b925050505b919050565b606060006114a46007611bcf565b905060008060005b8381101561154d573373ffffffffffffffffffffffffffffffffffffffff16600b60006001846114dc9190613a23565b815260200190815260200160002060010160009054906101000a900473ffffffffffffffffffffffffffffffffffffffff1673ffffffffffffffffffffffffffffffffffffffff16141561153a576001836115379190613a23565b92505b808061154590613bd8565b9150506114ac565b5060008267ffffffffffffffff811115611590577f4e487b7100000000000000000000000000000000000000000000000000000000600052604160045260246000fd5b6040519080825280602002602001820160405280156115c957816020015b6115b6612c5a565b8152602001906001900390816115ae5790505b50905060005b848110156117c5573373ffffffffffffffffffffffffffffffffffffffff16600b60006001846115ff9190613a23565b815260200190815260200160002060010160009054906101000a900473ffffffffffffffffffffffffffffffffffffffff1673ffffffffffffffffffffffffffffffffffffffff1614156117b257600060018261165c9190613a23565b90506000600b60008381526020019081526020016000209050806040518060a0016040529081600082015481526020016001820160009054906101000a900473ffffffffffffffffffffffffffffffffffffffff1673ffffffffffffffffffffffffffffffffffffffff1673ffffffffffffffffffffffffffffffffffffffff1681526020016002820160009054906101000a900473ffffffffffffffffffffffffffffffffffffffff1673ffffffffffffffffffffffffffffffffffffffff1673ffffffffffffffffffffffffffffffffffffffff168152602001600382015481526020016004820160009054906101000a900460ff161515151581525050848681518110611795577f4e487b7100000000000000000000000000000000000000000000000000000000600052603260045260246000fd5b60200260200101819052506001856117ad9190613a23565b945050505b80806117bd90613bd8565b9150506115cf565b508094505050505090565b3373ffffffffffffffffffffffffffffffffffffffff16600b600084815260200190815260200160002060020160009054906101000a900473ffffffffffffffffffffffffffffffffffffffff1673ffffffffffffffffffffffffffffffffffffffff1614611874576040517f08c379a000000000000000000000000000000000000000000000000000000000815260040161186b90613825565b60405180910390fd5b60095434146118b8576040517f08c379a00000000000000000000000000000000000000000000000000000000081526004016118af90613885565b60405180910390fd5b6000600b600084815260200190815260200160002060040160006101000a81548160ff02191690831515021790555080600b60008481526020019081526020016000206003018190555033600b600084815260200190815260200160002060010160006101000a81548173ffffffffffffffffffffffffffffffffffffffff021916908373ffffffffffffffffffffffffffffffffffffffff16021790555030600b600084815260200190815260200160002060020160006101000a81548173ffffffffffffffffffffffffffffffffffffffff021916908373ffffffffffffffffffffffffffffffffffffffff1602179055506119b6600861269c565b6119c1333084611c72565b5050565b6000600560008473ffffffffffffffffffffffffffffffffffffffff1673ffffffffffffffffffffffffffffffffffffffff16815260200190815260200160002060008373ffffffffffffffffffffffffffffffffffffffff1673ffffffffffffffffffffffffffffffffffffffff16815260200190815260200160002060009054906101000a900460ff16905092915050565b60007f01ffc9a7000000000000000000000000000000000000000000000000000000007bffffffffffffffffffffffffffffffffffffffffffffffffffffffff1916827bffffffffffffffffffffffffffffffffffffffffffffffffffffffff1916149050919050565b611acc816126f8565b611b0b576040517f08c379a0000000000000000000000000000000000000000000000000000000008152600401611b0290613845565b60405180910390fd5b50565b600033905090565b816004600083815260200190815260200160002060006101000a81548173ffffffffffffffffffffffffffffffffffffffff021916908373ffffffffffffffffffffffffffffffffffffffff160217905550808273ffffffffffffffffffffffffffffffffffffffff16611b8983610e26565b73ffffffffffffffffffffffffffffffffffffffff167f8c5be1e5ebec7d5bd14f71427d1e84f3dd0314c0f7b2291e5b200ac8c7c3b92560405160405180910390a45050565b600081600001549050919050565b600080611be983610e26565b90508073ffffffffffffffffffffffffffffffffffffffff168473ffffffffffffffffffffffffffffffffffffffff161480611c2b5750611c2a81856119c5565b5b80611c6957508373ffffffffffffffffffffffffffffffffffffffff16611c5184610664565b73ffffffffffffffffffffffffffffffffffffffff16145b91505092915050565b8273ffffffffffffffffffffffffffffffffffffffff16611c9282610e26565b73ffffffffffffffffffffffffffffffffffffffff1614611ce8576040517f08c379a0000000000000000000000000000000000000000000000000000000008152600401611cdf90613725565b60405180910390fd5b600073ffffffffffffffffffffffffffffffffffffffff168273ffffffffffffffffffffffffffffffffffffffff161415611d58576040517f08c379a0000000000000000000000000000000000000000000000000000000008152600401611d4f90613765565b60405180910390fd5b611d658383836001612739565b8273ffffffffffffffffffffffffffffffffffffffff16611d8582610e26565b73ffffffffffffffffffffffffffffffffffffffff1614611ddb576040517f08c379a0000000000000000000000000000000000000000000000000000000008152600401611dd290613725565b60405180910390fd5b6004600082815260200190815260200160002060006101000a81549073ffffffffffffffffffffffffffffffffffffffff02191690556001600360008573ffffffffffffffffffffffffffffffffffffffff1673ffffffffffffffffffffffffffffffffffffffff168152602001908152602001600020600082825403925050819055506001600360008473ffffffffffffffffffffffffffffffffffffffff1673ffffffffffffffffffffffffffffffffffffffff16815260200190815260200160002060008282540192505081905550816002600083815260200190815260200160002060006101000a81548173ffffffffffffffffffffffffffffffffffffffff021916908373ffffffffffffffffffffffffffffffffffffffff160217905550808273ffffffffffffffffffffffffffffffffffffffff168473ffffffffffffffffffffffffffffffffffffffff167fddf252ad1be2c89b69c2b068fc378daa952ba7f163c4a11628f55a4df523b3ef60405160405180910390a4611f67838383600161273f565b505050565b60006002600083815260200190815260200160002060009054906101000a900473ffffffffffffffffffffffffffffffffffffffff169050919050565b6001816000016000828254019250508190555050565b600073ffffffffffffffffffffffffffffffffffffffff168273ffffffffffffffffffffffffffffffffffffffff16141561202f576040517f08c379a000000000000000000000000000000000000000000000000000000000815260040161202690613805565b60405180910390fd5b612038816126f8565b15612078576040517f08c379a000000000000000000000000000000000000000000000000000000000815260040161206f90613745565b60405180910390fd5b612086600083836001612739565b61208f816126f8565b156120cf576040517f08c379a00000000000000000000000000000000000000000000000000000000081526004016120c690613745565b60405180910390fd5b6001600360008473ffffffffffffffffffffffffffffffffffffffff1673ffffffffffffffffffffffffffffffffffffffff16815260200190815260200160002060008282540192505081905550816002600083815260200190815260200160002060006101000a81548173ffffffffffffffffffffffffffffffffffffffff021916908373ffffffffffffffffffffffffffffffffffffffff160217905550808273ffffffffffffffffffffffffffffffffffffffff16600073ffffffffffffffffffffffffffffffffffffffff167fddf252ad1be2c89b69c2b068fc378daa952ba7f163c4a11628f55a4df523b3ef60405160405180910390a46121d960008383600161273f565b5050565b6121e6826126f8565b612225576040517f08c379a000000000000000000000000000000000000000000000000000000000815260040161221c906137c5565b60405180910390fd5b8060066000848152602001908152602001600020908051906020019061224c929190612cb7565b505050565b60008111612294576040517f08c379a000000000000000000000000000000000000000000000000000000000815260040161228b906138e5565b60405180910390fd5b60095434146122d8576040517f08c379a00000000000000000000000000000000000000000000000000000000081526004016122cf90613885565b60405180910390fd5b6040518060a001604052808381526020013373ffffffffffffffffffffffffffffffffffffffff1681526020013073ffffffffffffffffffffffffffffffffffffffff16815260200182815260200160001515815250600b60008481526020019081526020016000206000820151816000015560208201518160010160006101000a81548173ffffffffffffffffffffffffffffffffffffffff021916908373ffffffffffffffffffffffffffffffffffffffff16021790555060408201518160020160006101000a81548173ffffffffffffffffffffffffffffffffffffffff021916908373ffffffffffffffffffffffffffffffffffffffff1602179055506060820151816003015560808201518160040160006101000a81548160ff021916908315150217905550905050612411333084611c72565b817fb640004f1d14576d0c209e240cad0410e0d8c0c33a09375861fbadae2588a98d333084600060405161244894939291906135d5565b60405180910390a25050565b8173ffffffffffffffffffffffffffffffffffffffff168373ffffffffffffffffffffffffffffffffffffffff1614156124c3576040517f08c379a00000000000000000000000000000000000000000000000000000000081526004016124ba90613785565b60405180910390fd5b80600560008573ffffffffffffffffffffffffffffffffffffffff1673ffffffffffffffffffffffffffffffffffffffff16815260200190815260200160002060008473ffffffffffffffffffffffffffffffffffffffff1673ffffffffffffffffffffffffffffffffffffffff16815260200190815260200160002060006101000a81548160ff0219169083151502179055508173ffffffffffffffffffffffffffffffffffffffff168373ffffffffffffffffffffffffffffffffffffffff167f17307eab39ab6107e8899845ad3d59bd9653f200f220920489ca2b5937696c31836040516125b49190613688565b60405180910390a3505050565b6125cc848484611c72565b6125d884848484612745565b612617576040517f08c379a000000000000000000000000000000000000000000000000000000000815260040161260e90613705565b60405180910390fd5b50505050565b606060405180602001604052806000815250905090565b606061263f82611ac3565b600061264961261d565b905060008151116126695760405180602001604052806000815250612694565b80612673846128dc565b604051602001612684929190613596565b6040516020818303038152906040525b915050919050565b600081600001549050600081116126e8576040517f08c379a00000000000000000000000000000000000000000000000000000000081526004016126df906136e5565b60405180910390fd5b6001810382600001819055505050565b60008073ffffffffffffffffffffffffffffffffffffffff1661271a83611f6c565b73ffffffffffffffffffffffffffffffffffffffff1614159050919050565b50505050565b50505050565b60006127668473ffffffffffffffffffffffffffffffffffffffff16612a00565b156128cf578373ffffffffffffffffffffffffffffffffffffffff1663150b7a0261278f611b0e565b8786866040518563ffffffff1660e01b81526004016127b1949392919061361a565b602060405180830381600087803b1580156127cb57600080fd5b505af19250505080156127fc57506040513d601f19601f820116820180604052508101906127f99190613063565b60015b61287f573d806000811461282c576040519150601f19603f3d011682016040523d82523d6000602084013e612831565b606091505b50600081511415612877576040517f08c379a000000000000000000000000000000000000000000000000000000000815260040161286e90613705565b60405180910390fd5b805181602001fd5b63150b7a0260e01b7bffffffffffffffffffffffffffffffffffffffffffffffffffffffff1916817bffffffffffffffffffffffffffffffffffffffffffffffffffffffff1916149150506128d4565b600190505b949350505050565b6060600060016128eb84612a23565b01905060008167ffffffffffffffff811115612930577f4e487b7100000000000000000000000000000000000000000000000000000000600052604160045260246000fd5b6040519080825280601f01601f1916602001820160405280156129625781602001600182028036833780820191505090505b509050600082602001820190505b6001156129f5578080600190039150507f3031323334353637383961626364656600000000000000000000000000000000600a86061a8153600a85816129df577f4e487b7100000000000000000000000000000000000000000000000000000000600052601260045260246000fd5b04945060008514156129f0576129f5565b612970565b819350505050919050565b6000808273ffffffffffffffffffffffffffffffffffffffff163b119050919050565b600080600090507a184f03e93ff9f4daa797ed6e38ed64bf6a1f0100000000000000008310612aa7577a184f03e93ff9f4daa797ed6e38ed64bf6a1f0100000000000000008381612a9d577f4e487b7100000000000000000000000000000000000000000000000000000000600052601260045260246000fd5b0492506040810190505b6d04ee2d6d415b85acef81000000008310612b0a576d04ee2d6d415b85acef81000000008381612b00577f4e487b7100000000000000000000000000000000000000000000000000000000600052601260045260246000fd5b0492506020810190505b662386f26fc100008310612b5f57662386f26fc100008381612b55577f4e487b7100000000000000000000000000000000000000000000000000000000600052601260045260246000fd5b0492506010810190505b6305f5e1008310612bae576305f5e1008381612ba4577f4e487b7100000000000000000000000000000000000000000000000000000000600052601260045260246000fd5b0492506008810190505b6127108310612bf9576127108381612bef577f4e487b7100000000000000000000000000000000000000000000000000000000600052601260045260246000fd5b0492506004810190505b60648310612c425760648381612c38577f4e487b7100000000000000000000000000000000000000000000000000000000600052601260045260246000fd5b0492506002810190505b600a8310612c51576001810190505b80915050919050565b6040518060a0016040528060008152602001600073ffffffffffffffffffffffffffffffffffffffff168152602001600073ffffffffffffffffffffffffffffffffffffffff168152602001600081526020016000151581525090565b828054612cc390613b75565b90600052602060002090601f016020900481019282612ce55760008555612d2c565b82601f10612cfe57805160ff1916838001178555612d2c565b82800160010185558215612d2c579182015b82811115612d2b578251825591602001919060010190612d10565b5b509050612d399190612d3d565b5090565b5b80821115612d56576000816000905550600101612d3e565b5090565b6000612d6d612d6884613945565b613920565b905082815260208101848484011115612d8557600080fd5b612d90848285613b33565b509392505050565b6000612dab612da684613976565b613920565b905082815260208101848484011115612dc357600080fd5b612dce848285613b33565b509392505050565b600081359050612de581614169565b92915050565b600081359050612dfa81614180565b92915050565b600081359050612e0f81614197565b92915050565b600081519050612e2481614197565b92915050565b600082601f830112612e3b57600080fd5b8135612e4b848260208601612d5a565b91505092915050565b600082601f830112612e6557600080fd5b8135612e75848260208601612d98565b91505092915050565b600081359050612e8d816141ae565b92915050565b600060208284031215612ea557600080fd5b6000612eb384828501612dd6565b91505092915050565b60008060408385031215612ecf57600080fd5b6000612edd85828601612dd6565b9250506020612eee85828601612dd6565b9150509250929050565b600080600060608486031215612f0d57600080fd5b6000612f1b86828701612dd6565b9350506020612f2c86828701612dd6565b9250506040612f3d86828701612e7e565b9150509250925092565b60008060008060808587031215612f5d57600080fd5b6000612f6b87828801612dd6565b9450506020612f7c87828801612dd6565b9350506040612f8d87828801612e7e565b925050606085013567ffffffffffffffff811115612faa57600080fd5b612fb687828801612e2a565b91505092959194509250565b60008060408385031215612fd557600080fd5b6000612fe385828601612dd6565b9250506020612ff485828601612deb565b9150509250929050565b6000806040838503121561301157600080fd5b600061301f85828601612dd6565b925050602061303085828601612e7e565b9150509250929050565b60006020828403121561304c57600080fd5b600061305a84828501612e00565b91505092915050565b60006020828403121561307557600080fd5b600061308384828501612e15565b91505092915050565b6000806040838503121561309f57600080fd5b600083013567ffffffffffffffff8111156130b957600080fd5b6130c585828601612e54565b92505060206130d685828601612e7e565b9150509250929050565b6000602082840312156130f257600080fd5b600061310084828501612e7e565b91505092915050565b6000806040838503121561311c57600080fd5b600061312a85828601612e7e565b925050602061313b85828601612e7e565b9150509250929050565b60006131518383613510565b60a08301905092915050565b61316681613abf565b82525050565b61317581613aad565b82525050565b6000613186826139b7565b61319081856139e5565b935061319b836139a7565b8060005b838110156131cc5781516131b38882613145565b97506131be836139d8565b92505060018101905061319f565b5085935050505092915050565b6131e281613ad1565b82525050565b6131f181613ad1565b82525050565b6000613202826139c2565b61320c81856139f6565b935061321c818560208601613b42565b61322581613cae565b840191505092915050565b600061323b826139cd565b6132458185613a07565b9350613255818560208601613b42565b61325e81613cae565b840191505092915050565b6000613274826139cd565b61327e8185613a18565b935061328e818560208601613b42565b80840191505092915050565b60006132a7602d83613a07565b91506132b282613cbf565b604082019050919050565b60006132ca601b83613a07565b91506132d582613d0e565b602082019050919050565b60006132ed603283613a07565b91506132f882613d37565b604082019050919050565b6000613310602583613a07565b915061331b82613d86565b604082019050919050565b6000613333601c83613a07565b915061333e82613dd5565b602082019050919050565b6000613356602483613a07565b915061336182613dfe565b604082019050919050565b6000613379601983613a07565b915061338482613e4d565b602082019050919050565b600061339c602983613a07565b91506133a782613e76565b604082019050919050565b60006133bf602e83613a07565b91506133ca82613ec5565b604082019050919050565b60006133e2604083613a07565b91506133ed82613f14565b604082019050919050565b6000613405602083613a07565b915061341082613f63565b602082019050919050565b6000613428602a83613a07565b915061343382613f8c565b604082019050919050565b600061344b601883613a07565b915061345682613fdb565b602082019050919050565b600061346e602183613a07565b915061347982614004565b604082019050919050565b6000613491602483613a07565b915061349c82614053565b604082019050919050565b60006134b4603d83613a07565b91506134bf826140a2565b604082019050919050565b60006134d7603083613a07565b91506134e2826140f1565b604082019050919050565b60006134fa601c83613a07565b915061350582614140565b602082019050919050565b60a0820160008201516135266000850182613578565b506020820151613539602085018261315d565b50604082015161354c604085018261315d565b50606082015161355f6060850182613578565b50608082015161357260808501826131d9565b50505050565b61358181613b29565b82525050565b61359081613b29565b82525050565b60006135a28285613269565b91506135ae8284613269565b91508190509392505050565b60006020820190506135cf600083018461316c565b92915050565b60006080820190506135ea600083018761316c565b6135f7602083018661316c565b6136046040830185613587565b61361160608301846131e8565b95945050505050565b600060808201905061362f600083018761316c565b61363c602083018661316c565b6136496040830185613587565b818103606083015261365b81846131f7565b905095945050505050565b60006020820190508181036000830152613680818461317b565b905092915050565b600060208201905061369d60008301846131e8565b92915050565b600060208201905081810360008301526136bd8184613230565b905092915050565b600060208201905081810360008301526136de8161329a565b9050919050565b600060208201905081810360008301526136fe816132bd565b9050919050565b6000602082019050818103600083015261371e816132e0565b9050919050565b6000602082019050818103600083015261373e81613303565b9050919050565b6000602082019050818103600083015261375e81613326565b9050919050565b6000602082019050818103600083015261377e81613349565b9050919050565b6000602082019050818103600083015261379e8161336c565b9050919050565b600060208201905081810360008301526137be8161338f565b9050919050565b600060208201905081810360008301526137de816133b2565b9050919050565b600060208201905081810360008301526137fe816133d5565b9050919050565b6000602082019050818103600083015261381e816133f8565b9050919050565b6000602082019050818103600083015261383e8161341b565b9050919050565b6000602082019050818103600083015261385e8161343e565b9050919050565b6000602082019050818103600083015261387e81613461565b9050919050565b6000602082019050818103600083015261389e81613484565b9050919050565b600060208201905081810360008301526138be816134a7565b9050919050565b600060208201905081810360008301526138de816134ca565b9050919050565b600060208201905081810360008301526138fe816134ed565b9050919050565b600060208201905061391a6000830184613587565b92915050565b600061392a61393b565b90506139368282613ba7565b919050565b6000604051905090565b600067ffffffffffffffff8211156139605761395f613c7f565b5b61396982613cae565b9050602081019050919050565b600067ffffffffffffffff82111561399157613990613c7f565b5b61399a82613cae565b9050602081019050919050565b6000819050602082019050919050565b600081519050919050565b600081519050919050565b600081519050919050565b6000602082019050919050565b600082825260208201905092915050565b600082825260208201905092915050565b600082825260208201905092915050565b600081905092915050565b6000613a2e82613b29565b9150613a3983613b29565b9250827fffffffffffffffffffffffffffffffffffffffffffffffffffffffffffffffff03821115613a6e57613a6d613c21565b5b828201905092915050565b6000613a8482613b29565b9150613a8f83613b29565b925082821015613aa257613aa1613c21565b5b828203905092915050565b6000613ab882613b09565b9050919050565b6000613aca82613b09565b9050919050565b60008115159050919050565b60007fffffffff0000000000000000000000000000000000000000000000000000000082169050919050565b600073ffffffffffffffffffffffffffffffffffffffff82169050919050565b6000819050919050565b82818337600083830152505050565b60005b83811015613b60578082015181840152602081019050613b45565b83811115613b6f576000848401525b50505050565b60006002820490506001821680613b8d57607f821691505b60208210811415613ba157613ba0613c50565b5b50919050565b613bb082613cae565b810181811067ffffffffffffffff82111715613bcf57613bce613c7f565b5b80604052505050565b6000613be382613b29565b91507fffffffffffffffffffffffffffffffffffffffffffffffffffffffffffffffff821415613c1657613c15613c21565b5b600182019050919050565b7f4e487b7100000000000000000000000000000000000000000000000000000000600052601160045260246000fd5b7f4e487b7100000000000000000000000000000000000000000000000000000000600052602260045260246000fd5b7f4e487b7100000000000000000000000000000000000000000000000000000000600052604160045260246000fd5b6000601f19601f8301169050919050565b7f4552433732313a2063616c6c6572206973206e6f7420746f6b656e206f776e6560008201527f72206f7220617070726f76656400000000000000000000000000000000000000602082015250565b7f436f756e7465723a2064656372656d656e74206f766572666c6f770000000000600082015250565b7f4552433732313a207472616e7366657220746f206e6f6e20455243373231526560008201527f63656976657220696d706c656d656e7465720000000000000000000000000000602082015250565b7f4552433732313a207472616e736665722066726f6d20696e636f72726563742060008201527f6f776e6572000000000000000000000000000000000000000000000000000000602082015250565b7f4552433732313a20746f6b656e20616c7265616479206d696e74656400000000600082015250565b7f4552433732313a207472616e7366657220746f20746865207a65726f2061646460008201527f7265737300000000000000000000000000000000000000000000000000000000602082015250565b7f4552433732313a20617070726f766520746f2063616c6c657200000000000000600082015250565b7f4552433732313a2061646472657373207a65726f206973206e6f74206120766160008201527f6c6964206f776e65720000000000000000000000000000000000000000000000602082015250565b7f45524337323155524953746f726167653a2055524920736574206f66206e6f6e60008201527f6578697374656e7420746f6b656e000000000000000000000000000000000000602082015250565b7f506c65617365207375626d6974207468652061736b696e67207072696365206960008201527f6e206f7264657220746f20636f6d706c65746520746865207075726368617365602082015250565b7f4552433732313a206d696e7420746f20746865207a65726f2061646472657373600082015250565b7f4f6e6c79206974656d206f776e65722063616e20706572666f726d207468697360008201527f206f7065726174696f6e00000000000000000000000000000000000000000000602082015250565b7f4552433732313a20696e76616c696420746f6b656e2049440000000000000000600082015250565b7f4552433732313a20617070726f76616c20746f2063757272656e74206f776e6560008201527f7200000000000000000000000000000000000000000000000000000000000000602082015250565b7f5072696365206d75737420626520657175616c20746f206c697374696e67207060008201527f7269636500000000000000000000000000000000000000000000000000000000602082015250565b7f4552433732313a20617070726f76652063616c6c6572206973206e6f7420746f60008201527f6b656e206f776e6572206f7220617070726f76656420666f7220616c6c000000602082015250565b7f4f6e6c79206d61726b6574706c616365206f776e65722063616e20757064617460008201527f65206c697374696e672070726963652e00000000000000000000000000000000602082015250565b7f5072696365206d757374206265206174206c6561737420312077656900000000600082015250565b61417281613aad565b811461417d57600080fd5b50565b61418981613ad1565b811461419457600080fd5b50565b6141a081613add565b81146141ab57600080fd5b50565b6141b781613b29565b81146141c257600080fd5b5056fea26469706673582212207b5710534f4f544e85a4fccbf6f636b56d4d2d8362aeb70bbfc28171c4a775e064736f6c63430008040033",
  "linkReferences": {},
  "deployedLinkReferences": {}
}